{
    "istanbul": {
        "_info": {},
        "blocks": [
            {
                "rlp": "0xf90262f901f9a092230ce5476ae868e98c7979cfc165a93f8b6ad1922acf2df62e340916efd49da01dcc4de8dec75d7aab85b567b6ccd41ad312451b948a7413f0a142fd40d49347942adc25665018aa1fe0e6bc666dac8fc2697ff9baa0330a7882a8fadd60d0b6bf3d8ce7a8ae024800ae31ad8fae24d654a6a83fcad6a08151d548273f6683169524b66ca9fe338b9ce42bc3540046c828fd939ae23bcba0fa9e942c7bab1017c29ab8b7f9484e311f3a2ba680c2ec8abbaea2365cecc93eb901000000000000000000000000000000000000000000000000000000000000000000000000000000000000000000000000000000000000000000000000000000000000000000000000000000000000000000000000000000000000000000000000000000000000000000000000000000000000000000000000000000000000000000000000000000000000000000000000000000000000000000000000000000000000000000000000000000000000000000000000000000000000000000000000000000000000000000000000000000000000000000000000000000000000000000000000000000000000000000000000000000000000000000000000000000000083020000018502540be40082a02d8203e800a00000000000000000000000000000000000000000000000000000000000000000880000000000000000f863f861800a8405f5e10094100000000000000000000000000000000000000080801ba07e09e26678ed4fac08a249ebe8ed680bf9051a5e14ad223e4b2b9d26e0208f37a05f6e3f188e3e6eab7d7d3b6568f5eac7d687b08d307d3154ccd8c87b4630509bc0"
            }
        ],
        "genesisBlockHeader": {
            "parentHash": "0x0000000000000000000000000000000000000000000000000000000000000000",
            "uncleHash": "0x1dcc4de8dec75d7aab85b567b6ccd41ad312451b948a7413f0a142fd40d49347",
            "coinbase": "0x2adc25665018aa1fe0e6bc666dac8fc2697ff9ba",
            "stateRoot": "0xaff9f63320a482f8c4e4f15f659e6a7ac382138fbbb6919243b0cba4c5988a5a",
            "transactionsTrie": "0x56e81f171bcc55a6ff8345e692c0f86e5b48e01b996cadc001622fb5e363b421",
            "receiptTrie": "0x56e81f171bcc55a6ff8345e692c0f86e5b48e01b996cadc001622fb5e363b421",
            "bloom": "0x00000000000000000000000000000000000000000000000000000000000000000000000000000000000000000000000000000000000000000000000000000000000000000000000000000000000000000000000000000000000000000000000000000000000000000000000000000000000000000000000000000000000000000000000000000000000000000000000000000000000000000000000000000000000000000000000000000000000000000000000000000000000000000000000000000000000000000000000000000000000000000000000000000000000000000000000000000000000000000000000000000000000000000000000000000000",
            "difficulty": "0x20000",
            "number": "0x0",
            "gasLimit": "0x2540be400",
            "gasUsed": "0x0",
            "timestamp": "0x0",
            "extraData": "0x00",
            "mixHash": "0x0000000000000000000000000000000000000000000000000000000000000000",
            "nonce": "0x0000000000000000",
            "hash": "0x92230ce5476ae868e98c7979cfc165a93f8b6ad1922acf2df62e340916efd49d"
        },
        "lastblockhash": "0x3fce825fd52ab75e44061b5088bace9a4ad79875316187354d50ecda6d9732b5",
        "network": "Istanbul",
        "pre": {
            "0x1000000000000000000000000000000000000000": {
                "nonce": "0x0",
                "balance": "0x0",
                "code": "0x4660015500",
                "storage": {}
            },
            "0xa94f5374fce5edbc8e2a8697c15331677e6ebf0b": {
                "nonce": "0x0",
                "balance": "0x3635c9adc5dea00000",
                "code": "0x",
                "storage": {}
            }
        },
        "sealEngine": "NoProof"
    },
    "berlin": {
        "_info": {},
        "blocks": [
            {
                "rlp": "0xf90262f901f9a092230ce5476ae868e98c7979cfc165a93f8b6ad1922acf2df62e340916efd49da01dcc4de8dec75d7aab85b567b6ccd41ad312451b948a7413f0a142fd40d49347942adc25665018aa1fe0e6bc666dac8fc2697ff9baa02307107a867056ca33b5087e77c4174f47625e48fb49f1c70ced34890ddd88f3a08151d548273f6683169524b66ca9fe338b9ce42bc3540046c828fd939ae23bcba0c598f69a5674cae9337261b669970e24abc0b46e6d284372a239ec8ccbf20b0ab901000000000000000000000000000000000000000000000000000000000000000000000000000000000000000000000000000000000000000000000000000000000000000000000000000000000000000000000000000000000000000000000000000000000000000000000000000000000000000000000000000000000000000000000000000000000000000000000000000000000000000000000000000000000000000000000000000000000000000000000000000000000000000000000000000000000000000000000000000000000000000000000000000000000000000000000000000000000000000000000000000000000000000000000000000000000083020000018502540be40082a8618203e800a00000000000000000000000000000000000000000000000000000000000000000880000000000000000f863f861800a8405f5e10094100000000000000000000000000000000000000080801ba07e09e26678ed4fac08a249ebe8ed680bf9051a5e14ad223e4b2b9d26e0208f37a05f6e3f188e3e6eab7d7d3b6568f5eac7d687b08d307d3154ccd8c87b4630509bc0"
            }
        ],
        "genesisBlockHeader": {
            "parentHash": "0x0000000000000000000000000000000000000000000000000000000000000000",
            "uncleHash": "0x1dcc4de8dec75d7aab85b567b6ccd41ad312451b948a7413f0a142fd40d49347",
            "coinbase": "0x2adc25665018aa1fe0e6bc666dac8fc2697ff9ba",
            "stateRoot": "0xaff9f63320a482f8c4e4f15f659e6a7ac382138fbbb6919243b0cba4c5988a5a",
            "transactionsTrie": "0x56e81f171bcc55a6ff8345e692c0f86e5b48e01b996cadc001622fb5e363b421",
            "receiptTrie": "0x56e81f171bcc55a6ff8345e692c0f86e5b48e01b996cadc001622fb5e363b421",
            "bloom": "0x00000000000000000000000000000000000000000000000000000000000000000000000000000000000000000000000000000000000000000000000000000000000000000000000000000000000000000000000000000000000000000000000000000000000000000000000000000000000000000000000000000000000000000000000000000000000000000000000000000000000000000000000000000000000000000000000000000000000000000000000000000000000000000000000000000000000000000000000000000000000000000000000000000000000000000000000000000000000000000000000000000000000000000000000000000000",
            "difficulty": "0x20000",
            "number": "0x0",
            "gasLimit": "0x2540be400",
            "gasUsed": "0x0",
            "timestamp": "0x0",
            "extraData": "0x00",
            "mixHash": "0x0000000000000000000000000000000000000000000000000000000000000000",
            "nonce": "0x0000000000000000",
            "hash": "0x92230ce5476ae868e98c7979cfc165a93f8b6ad1922acf2df62e340916efd49d"
        },
        "lastblockhash": "0x9f6408491cf4eacbe363f28eda02a88d8840fb650188f894afc375889471776a",
        "network": "Berlin",
        "pre": {
            "0x1000000000000000000000000000000000000000": {
                "nonce": "0x0",
                "balance": "0x0",
                "code": "0x4660015500",
                "storage": {}
            },
            "0xa94f5374fce5edbc8e2a8697c15331677e6ebf0b": {
                "nonce": "0x0",
                "balance": "0x3635c9adc5dea00000",
                "code": "0x",
                "storage": {}
            }
        },
        "sealEngine": "NoProof"
    },
    "london": {
        "_info": {},
        "blocks": [
            {
                "rlp": "0xf90263f901faa092230ce5476ae868e98c7979cfc165a93f8b6ad1922acf2df62e340916efd49da01dcc4de8dec75d7aab85b567b6ccd41ad312451b948a7413f0a142fd40d49347942adc25665018aa1fe0e6bc666dac8fc2697ff9baa0a48abc194fdd8e58a32a90874e9144e19eb68306ec5e51bca9389d1043eeb20fa08151d548273f6683169524b66ca9fe338b9ce42bc3540046c828fd939ae23bcba0c598f69a5674cae9337261b669970e24abc0b46e6d284372a239ec8ccbf20b0ab901000000000000000000000000000000000000000000000000000000000000000000000000000000000000000000000000000000000000000000000000000000000000000000000000000000000000000000000000000000000000000000000000000000000000000000000000000000000000000000000000000000000000000000000000000000000000000000000000000000000000000000000000000000000000000000000000000000000000000000000000000000000000000000000000000000000000000000000000000000000000000000000000000000000000000000000000000000000000000000000000000000000000000000000000000000000083020000018502540be40082a8618203e800a0000000000000000000000000000000000000000000000000000000000000000088000000000000000007f863f861800a8405f5e10094100000000000000000000000000000000000000080801ba07e09e26678ed4fac08a249ebe8ed680bf9051a5e14ad223e4b2b9d26e0208f37a05f6e3f188e3e6eab7d7d3b6568f5eac7d687b08d307d3154ccd8c87b4630509bc0"
            }
        ],
        "genesisBlockHeader": {
            "parentHash": "0x0000000000000000000000000000000000000000000000000000000000000000",
            "uncleHash": "0x1dcc4de8dec75d7aab85b567b6ccd41ad312451b948a7413f0a142fd40d49347",
            "coinbase": "0x2adc25665018aa1fe0e6bc666dac8fc2697ff9ba",
            "stateRoot": "0xaff9f63320a482f8c4e4f15f659e6a7ac382138fbbb6919243b0cba4c5988a5a",
            "transactionsTrie": "0x56e81f171bcc55a6ff8345e692c0f86e5b48e01b996cadc001622fb5e363b421",
            "receiptTrie": "0x56e81f171bcc55a6ff8345e692c0f86e5b48e01b996cadc001622fb5e363b421",
            "bloom": "0x00000000000000000000000000000000000000000000000000000000000000000000000000000000000000000000000000000000000000000000000000000000000000000000000000000000000000000000000000000000000000000000000000000000000000000000000000000000000000000000000000000000000000000000000000000000000000000000000000000000000000000000000000000000000000000000000000000000000000000000000000000000000000000000000000000000000000000000000000000000000000000000000000000000000000000000000000000000000000000000000000000000000000000000000000000000",
            "difficulty": "0x20000",
            "number": "0x0",
            "gasLimit": "0x2540be400",
            "gasUsed": "0x0",
            "timestamp": "0x0",
            "extraData": "0x00",
            "mixHash": "0x0000000000000000000000000000000000000000000000000000000000000000",
            "nonce": "0x0000000000000000",
            "baseFeePerGas": "0x7",
            "hash": "0xee8c45ff6ff288ef572adbce1a5f28fc7e982555087a57357f05b35deb3591f0"
        },
        "lastblockhash": "0x5e63ef792710530d0603e4d7234be41921cad5e4f819fd949d661153b1eb6529",
        "network": "London",
        "pre": {
            "0x1000000000000000000000000000000000000000": {
                "nonce": "0x0",
                "balance": "0x0",
                "code": "0x4660015500",
                "storage": {}
            },
            "0xa94f5374fce5edbc8e2a8697c15331677e6ebf0b": {
                "nonce": "0x0",
                "balance": "0x3635c9adc5dea00000",
                "code": "0x",
                "storage": {}
            }
        },
        "sealEngine": "NoProof"
    }
}
